# Extracted using cyusb-fw-extract 0.1
# Stage 2 from CCS175.spt
:0300000002173EA6
:0C173E00787FE4F6D8FD75812102178544
:10193D008E0A8F0BE50B450A606990E600E054189E
:10194D007013AE0AAF0BFCFD7B88FAF9F812034158
:10195D00EF24F4803090E600E05418FFAE0ABF107B
:10196D0013AF0BE4FCFD7B217A02F9F8120341EF72
:10197D0024F28011AF0BE4FCFD7B107A01F9F81213
:10198D000341EF24F3F50FEE34FFF50EED34FFF5C3
:10199D000DEC34FFF50C780C74FF120473EC4D4E06
:0419AD004F70F32262
:10253200AD0790E600E054E7F0ED24F060042408D3
:09254200700690E600E04DF02265
:102119008F087E027F78E50824FD70081201F9AE68
:1021290002AF01228F828E83A3E064037016AD088B
:102139001508ED7001228F828E83E07C002FFFEC61
:082149003EFE80E0E4FEFF22EF
:1022E500EF90E6806006E0440AF08004E04408F0E0
:1022F5007FDC7E0512193D90E65D74FFF090E65F88
:0C230500F05391EF90E680E054F7F022D6
:10254B0090E682E044C0F0E490E681F0438701001E
:05255B00000000002259
:1023110090E682E030E004E020E60B90E682E030D7
:10232100E119E030E71590E680E04401F07F147E8A
:102331000012193D90E680E054FEF02290E678E02C
:102341004480F0A374A2F09035E77486F0A374A0E2
:10235100F090E678E020E00E9035E774FFF5F0129A
:07236100030C45F070EB22B4
:10156B008A098B0AA905AD0790E678E04480F0ED77
:10157B0025E04401A3F012234890E678E020E10334
:10158B007F072290E679E0B9010790E678E04420E6
:10159B00F0E4FD12234890E678E030E2037F062268
:1015AB00ED2402FFE433FEE97A00B5071DEAB50628
:1015BB001990E678E04420F0A3E0FFE50A2DF582D0
:1015CB00E43509F583EFF00D80C9ED2401FFE43319
:1015DB00FEE97A00B5071DEAB5061990E678E044F6
:1015EB0040F0A3E0FFE50A2DF582E43509F583EF22
:1015FB00F07F082290E679E0FFAE050DE50A2EF5A7
:0A160B0082E43509F583EFF08089D1
:101D6100AC07A905E4FE90E678E04480F0EC25E0BC
:101D7100A3F012234890E678E030E2037F06229038
:101D8100E678E020E1037F0722AF060EEB2FF58214
:101D9100E43AF583E090E679F0EEB501D5122348F7
:0A1DA10090E678E04440F07F08224D
:10161500AA07E4FE12233D90E678E030E2037F0658
:101625002290E678E020E1037F072290E679EAF050
:1016350012234890E678E030E2037F062290E678B0
:10164500E020E1037F072290E679EDF01223489030
:10165500E678E030E2037F062290E678E020E103B9
:101665007F0722E5102EF582E4350FF583E090E63D
:1016750079F00EEEC39B40D412234890E678E044FF
:1016850040F090E678E020E6F912233D90E678E018
:1016950030E2037F062290E678E030E1ECE044405A
:0B16A500F090E678E020E6F97F0822D4
:0E25F400C2E990E67AE054FDF0E04401F022E6
:080FD0004135F4004135E90050
:1021BF00E4F514F512F5137F101225321226787FED
:1021CF00011200037F0A7E0012193D1225F412102E
:1021DF00A71214B81218C6E49035F4F0122602D2E2
:0221EF00AF221D
:09265D00121B5C1226890225E320
:1012470090E6BFE09035F5F090E6BEE09035F6F019
:1012570090E6BDE09035ECF090E6BCE09035EDF01F
:1012670090E6BBE09035EAF090E6BAE09035EBF017
:1012770090E6B8E030E744A3E024DF601B24FE607B
:101287002614602814602A24F560172431600E2480
:10129700DF7023121E84806F121A25806A122517A9
:1012A70080651200168060121FDF805B12240A809F
:1012B70056121C0E8051120046804C90E6B9E0246D
:1012C700EF601E14602024F2602114602324FE6066
:1012D7002414602624FE602724167028121E3D80E1
:1012E7002612019F8021122223801C121DAB80171A
:1012F7001208108012121AF9800D1224FC800812AD
:09130700263480031225AEC32236
:10019F00E490E68BF09035CD7402F0A3E4F0903547
:1001AF00EBE0FE9035EAE0FDEDFF9035CDE0FCA3EE
:1001BF00E0FD240AF582E43CF583EEF0A3EFF0EDC9
:1001CF00240CF582E43CF5837401F0A37423F0ED65
:1001DF002408F582E43CF5837413F0A3F07F011239
:0A01EF0022E590E6A0E04480F02233
:101E3D00E490E68BF09035F6E0FF90E68BE0C39FE3
:101E4D0040F39035F6E0F515E4F5169035EBE0FF2F
:101E5D00120CC78F14E514600990E6A0E04401F060
:101E6D00800DE490E68AF09035F6E090E68BF090E8
:071E7D00E6A0E04480F02222
:101A2500D39035F6E094409035F5E0940040057587
:101A3500140180387A357BEA7D027F51121D61BF22
:101A4500081590E6A0E020E1F99035F6E0FD7AE78B
:101A55007B407F5112156BEF24F9600814700AE47E
:101A6500F51480087514208003751421E5146009A8
:101A750090E6A0E04401F0800DE490E68AF0903510
:0E1A8500F6E090E68BF090E6A0E04480F022C0
:10081000D39035F6E094409035F5E09400400575AE
:1008200014018069C39035EBE094C09035EAE09400
:100830007F401EA3E024C0F5099035EAE034FFF5BF
:1008400008C3E50994C0E508947F4005751402804B
:100850003CD39035EBE094409035EAE0940040378B
:10086000A3E024C0F50B9035EAE034FFF50AC37429
:10087000C0950BF50B747F950AF50AD39035F6E019
:10088000950B9035F5E0950A400D75140290E6A0A1
:10089000E04401F00209DB9035EAE0FEA3E07806CF
:1008A000CEC313CE13D8F9FF9035CDEEF0A3EFF001
:1008B0009035CDE0FEA3E07806C333CE33CED8F931
:1008C000F5098E08C39035EBE09509F5099035EAF6
:1008D000E09508F508C374409509F50BE49508F513
:1008E0000AC39035F6E0950B9035F5E0950A500770
:1008F000E0F50AA3E0F50B9035EAE0F508A3E0F592
:1009000009E49035CFF0A3F07D0890E68AF090E6F8
:100910008BF090E6A0E020E1F9ED640860030209A5
:10092000B7D39035F6E094009035F5E0940050038D
:100930000209B79035CFA3E02440F582E434E7AF55
:1009400082F50F8F10AB0BAD09AF08121615AD076E
:10095000BD08C6C39035F6E0950BF09035F5E095EF
:100960000AF09035D0E0250BF09035CFE0350AF055
:100970009035CEE004F070069035CDE004F090356F
:10098000CDE0FEA3E07806C333CE33CED8F9F50927
:100990008E08D39035F6E094409035F5E094004011
:1009A00009750A00750B400209199035F5E0F50A42
:1009B000A3E0F50B020919ED24F9600814700AE4AC
:1009C000F514800F751420800375142190E6A0E0C3
:1009D0004401F0E490E68BF090E6A0E04480F02241
:101E84009035EBE0FF9035F6E0FD7AE77B401215E4
:101E94006BEF24F9600814700AE4F51480087514D3
:101EA400208003751421E514600890E6A0E04481C5
:101EB400F022E490E68AF09035F6E090E68BF0901C
:071EC400E6A0E04480F022DB
:101DAB00E490E68AF090E68BF090E6A0E020E1F973
:101DBB009035EBE0FF9035F6E0FD7AE77B40121DA6
:101DCB0061EF24F9600814700AE4F51480087514A7
:101DDB00208003751421E514600790E6A0E0440110
:091DEB00F090E6A0E04480F02233
:102223009035EAE0FEA3E08EF01204F4223B0100B5
:10223300223F010100002241C2828002D282E514C2
:10224300600790E6A0E04401F090E6A0E04480F04F
:012253002268
:101AF900E49035F2F0A3F09035EEF0A3F09035F0D4
:101B0900F0A3F090E68AF090E68BF090E6A0E02052
:101B1900E1F990E740E09035F2F090E741E0903547
:101B2900F3F090E742E09035EEF090E743E090352E
:101B3900EFF090E744E09035F0F090E745E090351C
:101B4900F1F09035E97401F0E4F51490E6A0E04471
:031B590080F022F7
:101FDF009035F2E090E740F09035F3E090E741F074
:101FEF009035EEE090E742F09035EFE090E743F068
:101FFF009035F0E090E744F09035F1E090E745F050
:10200F00E490E68AF090E68B7406F090E6A0E04448
:03201F0080F0222C
:1024FC00E490E68BF09035EAE0FEA3E0FF12117A4F
:0B250C00E4F51490E6A0E04480F0220B
:10240A007B007A00790812258890E740E508F0A356
:10241A00E509F0E490E68AF090E68B7402F090E623
:06242A00A0E04480F02256
:0B2634001220DD90E6A0E04480F022C0
:101C0E009035EAE0FEA3E0FFEE7030EF14601204B0
:101C1E00702990E7407401F0A37403F0E4A3F08000
:101C2E002312268C90E740EFF012268C90E741EFBE
:101C3E00F012268C90E742EFF08009E490E740F036
:101C4E00A3F0A3F0E490E68AF090E68B7403F09094
:071C5E00E6A0E04480F02243
:1000160090E740E513F0A3E512F0E490E68AF0904D
:0D002600E68B7402F090E6A0E04480F0222A
:10251700E490E68AF090E68B04F090E740E514F04B
:0B252700E4F51490E6A0E04480F022F0
:0C00460090E6A0E04401F0E04480F022CD
:1025AE00E490E68BF0F090E6A0E04401F0E0448089
:0225BE00F02209
:092666001206031225D20221BF65
:1006030090E600E054E74410F00000000000000012
:1006130000000000000000000090E60174FAF00002
:100623000000000000000000000000000000009037
:10063300E61274A0F00000000000000000000000BB
:100643000000000000E490E613F00000000000004A
:100653000000000000000000000090E61474E0F0C9
:100663000000000000000000000000000000000087
:10067300E490E615F090E6047480F00000000000BA
:1006830000000000000000000000007402F0000001
:1006930000000000000000000000000000007406DD
:1006A300F000000000000000000000000000000057
:1006B30000E4F00000000000000000000000000063
:1006C30000000090E61804F00000000000000000A5
:1006D30000000000000000007411F00000000000A2
:1006E300000000000000000000000090E61A7409FA
:1006F300F000000000000000000000000000000007
:100703000012131090E6F3E04420F0000000000014
:10071300000000000000000000000090E6D2740119
:10072300F0000000000000000000000000000000D6
:100733000090E6E204F0000000000000000000006A
:10074300000000000000903584E090E6C7F0000050
:1007530000000000000000000000000000009035D1
:1007630088E090E6CBF000000000000000000000ED
:1007730000000000000090358BE090E60CF00000D4
:1007830000000000000000000000000000009035A1
:1007930089E090E6CCF000000000000000000000BB
:1007A30000000000000090358AE090E6CDF00000E4
:1007B300000000000000000000000000000090E6C0
:1007C30080E030E71C90E6247402F0000000000093
:1007D3000000000000000000000000E490E6258017
:1007E3001AE490E624F0000000000000000000007E
:1007F30000000000000090E6257440F000000000B7
:0D08030000000000000000000000000022C6
:1024DD00AD07AC06E5BB30E7FB90E6C0741EF0908F
:0F24ED00E6F0ECF090E6F1EDF0E5BB30E7FB2216
:0326860002265DCC
:06268F00D322D322D32266
:0A263F0090E6BAE09035F8F0D322DF
:102560009035F8E090E740F0E490E68AF090E68B52
:0425700004F0D3227E
:0A26490090E6BAE09035F7F0D322D6
:102574009035F7E090E740F0E490E68AF090E68B3F
:0425840004F0D3226A
:06269500D322D322D32260
:04267E0012124722CB
:1023BC00C0E0C083C082C085C084C086758600D250
:1023CC00095391EF90E65D7401F0D086D084D085EE
:0723DC00D082D083D0E03273
:10243000C0E0C083C082C085C084C086758600535A
:1024400091EF90E65D7404F0D086D084D085D08280
:10245000D083D0E032C0E0C083C082C085C084C0D9
:10246000867586005391EF90E65D7402F0D086D0B9
:0A24700084D085D082D083D0E03202
:10225400C0E0C083C082C085C084C08675860090FB
:10226400024B7402F090021D7407F05391EF90E654
:102274005D7410F0D086D084D085D082D083D0E035
:012284003227
:1023E300C0E0C083C082C085C084C086758600D229
:1023F3000B5391EF90E65D7408F0D086D084D085BE
:07240300D082D083D0E0324B
:10215100C0E0C083C082C085C084C08675860090FF
:10216100E680E030E70C90024B7407F090021D749A
:1021710002F05391EF90E65D7420F0D086D084D0C8
:0821810085D082D083D0E0324A
:0100120032BB
:01005200327B
:0113FF0032BB
:10269B00323232323232323232323232323232320F
:1026AB0032323232323232323232323232323232FF
:0126BB0032EC
:0C261C000000C0131386800000010008BD
:100FD8004135C8004135C9004135CC004235CA0009
:080FE8000041359500011100E4
:06267800C28243B20422FD
:0F000300EF6006D28243130122C2825313FE2202
:1010A700E4C28043B201C28343B2087F14FE12191F
:1010B7003DD28153B2FD7F077E601224DDA281E419
:1010C7003333333354F8F5117F057E601224DDA2E4
:1010D70081E43325E025E02511F5117F037E6012B9
:1010E70024DDA281E43325E02511F5117F017E601F
:1010F7001224DDA281E4332511F511E511B40F03A4
:10110700E4F51190E670E04402F0D28AD2AAE4FF37
:10111700FE1224DD7FCF7E1E1224DD7FD17E2E12AC
:1011270024DD7F017E301224DD7F007E401224DD26
:101137007F007E501224DDE49035F2F0A3F0903565
:10114700EE741EF0A374CFF09035F0742EF0A374F4
:10115700D1F0E49035C8F0A3F09035CCF0431302FA
:101167005313FB5313F75313EF5313DF5313BF53A8
:03117700137F22C1
:0C261000D2807F017E0012193DC28022A2
:1025D20043B2085380F77F017E0012193D43800801
:0125E20022D6
:1024BD001225C0E4FFEF24FF92AAEF60047F018094
:1024CD00027F007E501224DD7F017E0012193D2215
:1025C00090E6F574FFF0E49035C8F0A3F09035CCB8
:0225D000F022F7
:1020A10090E6047480F000000000000000000000D1
:1020B1000000000000007406F000000000000000B5
:1020C100000000000000000000E4F000000000003B
:0C20D100000000000000000000000022E1
:03268900020EED51
:1025E30030810A43130453137F5313FD225313FB08
:0125F30022C5
:100EED009035C9E07003020F875313FD4313085368
:100EFD0013EF5313DF5313BF53137FE5BB30E77766
:100F0D00E4F09035CC04F00000000000000000007B
:100F1D000000000000000090E6D0740EF00000000C
:100F2D000000000000000000000000000090E6D16D
:100F3D00746EF000000000000000000000000000D2
:100F4D00000000121DF40000000000000000000071
:100F5D0000000000000075BB06000000000000004E
:100F6D000000000000000000005313FD5313F74371
:100F7D0013105313DF80034313409035CCE06042D0
:100F8D00E5BB30E73D000000000000000000000060
:100F9D00000000000090E6487406F0E49035CCF0B7
:100FAD005313F75313EF4313209035CAE07004A386
:100FBD00E06403700A1226104313805313FD22437D
:030FCD00130222EA
:101B5C009035E9E060521224BD1225D21220A190DA
:101B6C0035F2E0FEA3E0FF1224DD9035EEE0FEA39B
:101B7C00E0FF1224DD9035F0E0FEA3E0FF1224DD3F
:101B8C007F011224C2E49035E9F09035CAE070046C
:101B9C00A3E06403600C9035CAE07004A3E0640316
:091BAC007006122610431380227A
:10117A008E088F091224BD1225D21220A15313FD05
:10118A005313F75313EF5313DF5313BFE5086003E9
:10119A00021246E509146031146052146076240381
:1011AA006003021246E49035CAF0A3F0FF7E3012C3
:1011BA0024DD7F007E401224DD7F011224C2122624
:1011CA001053137F5312FE80209035CAE4F0A30413
:1011DA00F0FF7E301224DD7F007E401224DD7F0185
:1011EA001224C253137F4312015312FD229035CAAF
:1011FA00E4F0A37402F07F007E301224DD7F017ECA
:10120A00401224DD7F011224C21226104313805398
:10121A0012FE80259035CAE4F0A37403F07F007EA5
:10122A00301224DD7F017E401224DD7F011224C2A8
:0D123A0012261043138043120143120222BA
:10258800EA494B600D9035CAE0FFA3E0CF8FF01207
:03259800032222F9
:1020DD001224BD1225D21220A17F011224C2431356
:1020ED00025313FB5313F75313EF4313209035CAC9
:1020FD00E07004A3E06403600C9035CAE07004A3A3
:0C210D00E06403700612261043138022C9
:1014B800E4F50878D57C357D017BFF7A26791CFE1A
:1014C8007F021205DD78D77C357D017BFF7A26798E
:1014D8001E7E007F081205DD7A357BD57D027F519F
:1014E800121D617A357BCD7D087F5112156BEF2473
:1014F800F9600814700AE4F5148008751420800354
:10150800751421EF64086003431280E4F50874D76A
:101518002508F582E43435F583E0FE74CD2508F519
:1015280082E43435F583E06E602F431240750F3541
:101538007510D77B08E4FDFF121615EF24F9600833
:1015480014700AE4F51480087514208003751421BA
:10155800EF6408600D431280220508E508C394086B
:0315680040AC2272
:0300130002239332
:10239300C0E0C083C082C085C084C08675860090BB
:1023A300E6F4E030E0069035C97401F0D086D084BD
:0923B300D085D082D083D0E03245
:101DF400903583E090E6C6F000000000000000008B
:101E04000000000000000000903585E090E6C8F076
:101E140000000000000000000000000000000000BE
:101E2400903586E090E6C9F0000000000000000054
:091E340000000000000000002283
:1018C600E4F50878E57C357D017BFF7A267926FEEE
:1018D6007F021205DD7A357BE57D027F51121D619F
:1018E600EF640860034312207A357BCD7D187F5163
:1018F60012156BEF64086003431220BF080790358A
:10190600CDE0B4FF119035967404F0A314F0A374DF
:1019160030F0E4A3F022750C01750D35750ECD7B04
:10192600017A357998121D118F08E5082402903541
:0719360096F0A37403F022F8
:0701F9007B017A35799622A3
:101D11008B098A0A890BE4FFFEAB0CAA0DA90E12EE
:101D2100029E603B050EE50E7002050D14F91202CC
:101D31009EFDAB09050BE50BAA0A7002050A14F911
:101D4100ED1202E4AB09050BE50BAA0A7002050AC4
:101D510014F9E41202E474022FFFE43EFE80BA2279
:03268C00AF112269
:0A2653000001020203030404050560
:1019B100C0D075D000C20BC208C20AC20912266685
:1019C100D2E843D82090E668E04409F090E65CE074
:1019D100443DF090E680E020E1057F011222E553CD
:1019E1008EF8C20B90E680E054F7F012268630099B
:1019F10005C209121BB5300BF212268F50EDC20B36
:101A010012254B20081690E682E030E704E020E141
:101A1100EF90E682E030E604E020E0E412231112C8
:041A2100269180C7C3
:101BB50090E6B9E0603114603324FE603424FB60A4
:101BC5002114601914600C14600E2405702E121671
:101BD500B08021122574801C122649801712263FD9
:101BE5008012122560800D12184980081217CA80CC
:101BF50003121A9390E6A0E04480F02212267E504C
:091C05000790E6A0E04401F02282
:0300330002268220
:0426820053D8EF3208
:1016B000122693400302173D90E6BBE024FE602211
:1016C00014605524FD6011146033240670687402A0
:1016D00090E6B3F074008059740290E6B3F074128F
:1016E000804F90E680E030E70A740290E6B3F07431
:1016F0001C8008740290E6B3F0744A803490E6804F
:10170000E030E70A740290E6B3F0744A800874028D
:1017100090E6B3F0741C801990E6BAE0FF1221192C
:10172000AA06A9077B01EA494B600BEE90E6B3F0ED
:0E173000EF90E6B4F02290E6A0E04401F02233
:10184900122695507790E6B8E0247F601514601948
:1018590024027061A208E43325E0FFA20AE4334FB1
:101869008041E490E740F0803F90E6BCE0547EFF81
:101879007E00E0D394807C0040047D0180027D00DD
:10188900EC4EFEED4F2453F58274263EF583E49326
:10189900FF3395E0FEEF24A1FFEE34E68F82F58356
:1018A900E0540190E740F0E4A3F090E68AF090E676
:0D18B9008B7402F02290E6A0E04401F022C2
:1017CA00122697507990E6B8E024FE601024027041
:1017DA006D90E6BAE0B40103C20822805A90E6BAD4
:1017EA00E0705490E6BCE0547EFF7E00E0D3948023
:1017FA007C0040047D0180027D00EC4EFEED4F240A
:10180A0053F58274263EF583E493FF3395E0FEEFA9
:10181A0024A1FFEE34E68F82F583E054FEF090E6D1
:10182A00BCE05480131313541FFFE0540F2F90E6AB
:0F183A0083F0E04420F02290E6A0E04401F02289
:101A9300122699506090E6B8E024FE601824027084
:101AA3004D90E6BAE0B40103D2082290E6BAE064AE
:101AB300026042803990E6BCE0547EFF7E00E0D3B2
:101AC30094807C0040047D0180027D00EC4EFEED9D
:101AD3004F2453F58274263EF583E493FF3395E058
:101AE300FEEF24A1FFEE34E68F82F583800390E6B8
:061AF300A0E04401F02216
:100FF000608034EA020101010101010702020202DC
:1010000002020200030707070707070300000000AA
:101010000000003F01013F01010101070002010042
:1010200000000000010003030303030300000000AD
:101030000000003F0101013B010101070000000326
:101040000202020003010003030303030000002D5A
:101050000000003F3991010139010107010100023F
:101060000100000003030100030303032DF000004F
:101070002D00003F602435710000000000000000DA
:101080000000000000000000000083360003070796
:1010900003020100000000000000000047356AE084
:0610A000100003FA1E001F
:1013100090E60174FAF090E6F574FFF090356AE01B
:1013200090E6F3F090356BE090E6C3F090356CE01A
:1013300090E6C1F090356DE090E6C2F090356FE038
:1013400090E6C0F0903570E090E6F4F075AF077469
:1013500034F59A74EAF59B759DE4E4F59EFF90E6FA
:101360007BE090E67CF00FBF80F490E67174FFF0B4
:10137000F5B490E672E04480F043B680000000E4EB
:1013800090E6C4F000000090E6C5F0903571E09062
:10139000E6C6F0903572E090E6C7F0903573E090C5
:1013A000E6C8F0903574E090E6C9F0903575E090AD
:1013B000E6CAF0903576E090E6CBF0903577E09095
:0C13C000E6CCF0903578E090E6CDF0220D
:10228500E490300BF0A3F0903010F090300DF0A3F7
:1022950004F0A3F0E4903015F0A3F0A3F090301112
:1022A50012049D0000000053B27F43B270D2872212
:10259B00EF2407FFE43EFEEF7803CEC313CE13D830
:0325AB00F9FF2213
:1009E000E4FEEF7021D284C286D286C286D286C24D
:1009F00086D286C286D286C286D286C286D28690A9
:100A0000300DF0020B9A90300DE0FD6F6014BF07BF
:100A100004EDB40608BF0E0AED640D60057E1502F4
:100A20000B9AEFB5050CBF0603020ACFBF0D0302F8
:100A30000B3F90300DE0FD6F7003020B9AEDB41088
:100A4000004003020B90900A4DF8282873020A7D9B
:100A5000020A80020A83020AA5020AAC020ABB0249
:100A60000ACF020ADE020AFF020B06020B15020B76
:100A70001C020B2B020B3F020B4E020B6F020B7280
:100A8000020B81EFC39409400ED284C286D28690B5
:100A9000300D7409F0809BC284C286D28690300DDE
:100AA0007403F0808DBF040280378000D284C28638
:100AB000D28690300D7405F0020A32BF060FC28450
:100AC000C286D28690300D7406F0020A328021D29E
:100AD00084C286D28690300D7407F0020A32BF04B9
:100AE0000FC284C286D28690300D7404F0020A329E
:100AF000D284C286D28690300D7408F0020A32BFCA
:100B00000102806E807BC284C286D28690300D74D2
:100B10000AF0020A32BF0B0280378000D284C286FC
:100B2000D28690300D740CF0020A32BF0D0FC284D1
:100B3000C286D28690300D740DF0020A328021D226
:100B400084C286D28690300D740EF0020A32BF0B3A
:100B50000FC284C286D28690300D740BF0020A3226
:100B6000D284C286D28690300D740FF0020A32BF52
:100B7000010FC284C286D28690300D7401F0020A41
:100B800032D284C286D28690300D7402F0020A32CC
:100B90007E1590300DEFF0020A32AF062290301829
:100BA000E0FEA3E0FF90301BE02FFF90301AE03E04
:100BB000FAA9079035CE7401F0A3EAF0A3E9F0D3C7
:100BC0009030E6E094089030E5E094005003020C89
:100BD0005AE0FCA3E0FDAE047803CEC313CE13D8D5
:100BE000F914F50C75F008A4FFC3ED9FFEEC95F029
:100BF0009030E5F0A3CEF0AF0C150CEF605C9035B3
:100C0000CF74FFF5F01202F69035CEE0FBA3E0FAC8
:100C1000A3E0F912029EF520139285C286D286E5E2
:100C200020A2E19285C286D286A2E29285C286D2B5
:100C300086A2E39285C286D286A2E49285C286D23B
:100C400086A2E59285C286D286A2E69285C286D227
:100C500086339285C286D286809D9030E5E0700210
:100C6000A3E060629035CEE0FBA374FFF5F01202C2
:100C7000F6A9F0FA12029EF520E4F50C9030E5E0BA
:100C80007002A3E060D4E50CC3940850CD9030E628
:100C9000E024FFF09030E5E034FFF0903009E0FF11
:100CA000903008E06F600C9030E5E07002A3E070D7
:100CB00002D284E520139285E520C313F520C28675
:070CC000D286050C80B6226C
:100DEB00903018E0FFA3E090305FCFF0A3EFF090CE
:100DFB003018A3E02461F9E43430FA9035D1740152
:100E0B00F0A3EAF0A3E9F0903018E0FEA3E0FF9026
:100E1B00301BE02FFF90301AE03EFAA9079035CE39
:100E2B007401F0A3EAF0A3E9F09030E5E07002A3BF
:100E3B00E07003020EEC9035CF74FFF5F01202F662
:100E4B009035CEE0FBA3E0FAA3E0F912029E9035B9
:100E5B00D4F0E4A3F0FC9030E5E07002A3E0606016
:100E6B00ECC39408505A9030E6E024FFF09030E544
:100E7B00E034FFF0903009E0FE903008E06E600C3B
:100E8B009030E5E07002A3E07002D2849035D4E09C
:100E9B00FE30E004D2858002C285EEC3139035D4B8
:100EAB00F0C286308715A3E0FEAF047401A80708D3
:100EBB008002C333D8FC4E9035D5F0D2860C809689
:100ECB009035D274FFF5F01202F69035D5E0FF9015
:100EDB0035D1E0FBA3E0FAA3E0F9EF1202E4020E36
:020EEB003422AF
:10005600A3F0E490300AF090300EE0903009F09072
:100066003011E0FCA3E0FDA3E0FEA3E0FF90300327
:10007600120491E4903007F0E490300CF0F50AF5A4
:100086000B9030E5E07002A3E0701D903003E0FCB9
:10009600A3E0FDA3E0FEA3E0FFEC4D4E4F7003028C
:1000A6000180122063020180903008E0FF1209E00F
:1000B60090300AE030E013120DEB121ECBEF700405
:1000C6007F0180027F008F0A8003120B9D9030090A
:1000D600E0FF903008E06F700302016B90300DE096
:1000E60004F0E50A6060903003E0FCA3E0FDA3E0C5
:1000F600FEA3E0FFEC4D4E4F604CA3E0FFE50BC3C3
:100106009F50437F061209E07F041209E0903003F6
:10011600E0F8A3E0F9A3E0FAA3E0FBC00090300307
:10012600E0FCA3E0FDA3E0FEA3E0FF780212045E7C
:10013600D000EB2FFFEA3EFEE93DFDE83CFC9030A7
:10014600031204918008903009E0FF1209E0903014
:1001560003E0FCA3E0FDA3E0FEA3E0FFEC4D4E4F61
:100166006003122063E50A6011903007E0FFAE0BD2
:10017600050BEEC39F50030200AEE50A601A9030ED
:1001860007E0FF600DE50BD39F400790300C74131A
:09019600F02290300C7412F022EA
:0D0036007E307FA2121CBFE490300CF0223F
:1023680012247A8F087E0012259BEFD394404007F1
:1023780090300C7416F022122193903008740BF0F0
:0B2388009030E5E4F0E508120056225A
:1013CC0012247A8F0812247A8F09AF09AE081225DD
:1013DC009BEFD39440400790300C7416F0221221EE
:1013EC0093903008740BF09030E5E508F0E50912A5
:0313FC0000562276
:101F110012218E9030087404F0903015E0FFA3E098
:101F21009030E5CFF0A3EFF090300A7403F09030D9
:101F31000EE0903009F0903011E0FCA3E0FDA3E049
:101F4100FEA3E0FF903003120491903010E0903036
:051F510007F002007E14
:10249C0012247A903011EFF012247A903012EFF06F
:1024AC0012247A903013EFF012247A903014EFF05B
:0124BC0022FD
:09266F0012247A903010EFF022E1
:1022B50012247A12247A12247A903015EFF012241F
:1022C5007A903016EFF0903015E0FEA3E0FF12256E
:1022D5009BA3EFF0D39440400690300C7416F02287
:101F9B0090300A7403F090300FE0903009F09030DD
:101FAB0011E0FCA3E0FDA3E0FEA3E0FF90300312E1
:101FBB000491903010E012218A121CBB90300874EF
:101FCB0004F0903015E0FFA3E09030E5CFF0A3EFE5
:041FDB00F002007E92
:1020220090300BE0B40E0A90300FE0903009F0804F
:10203200069030097404F0E490300AF090300312F4
:10204200049D000000001221899030087404F09071
:102052003015E0FFA3E09030E5CFF0A3EFF00200EF
:012062007EFF
:101F560090300BE0B4110A90300FE0903009F08019
:101F6600069030097404F090300A7401F090300342
:101F760012049D00000000122189121CBB9030083B
:101F86007404F0903015E0FFA3E09030E5CFF0A3A5
:051F9600EFF002007EE7
:0C26280012247A1209E090300CEFF0222E
:1021F10012247AEF600B6401600790300C7415F0C3
:102201002290300BE0B4130DEF90300E700304F008
:1022110022740DF022EF90300F700304F022740647
:02222100F022A9
:101C650012247A8F0812247A8F0912247A9035CE9D
:101C7500EFF012247A9035CFEFF012247A9035D018
:101C8500EFF012247A9035D1EFF090300DE0650831
:101C95006005AF081209E09035CEE0FCA3E0FDA396
:101CA500E0FEA3E0FF12207690300DE065096005A7
:061CB500AF091209E02254
:0E260200122285E4FF1209E090300CEFF02266
:100CC70090300BEFF0E4A3F090E6BCE0D394004043
:100CD70073E0B4010E9030007401F0A37430F0A3F8
:100CE70074EAF0E49035CDF090E6BEE0FE9035CDA5
:100CF700E0FDC39E502D74402DF582E434E7F58363
:100D0700E0FE903000E0FBA3E0FAA3E0F9EE120268
:100D1700E4903001E475F0011202F69035CDE0045D
:100D2700F080C590E6BCE064036003020DE590E641
:100D3700BDE0F5159030E77401F0A37430F0A374AB
:100D4700EAF080127AE779409030E77401F0A374F3
:100D5700E7F0A37440F0EF1204CE0D9E000DA10141
:100D67000DA6020DAB030DB0040DB5070DBA080DA6
:100D7700BF090DC40C0DC40D0DC40E0DC90F0DC94F
:100D8700100DC9110DCE120DD3130DD3140DD81597
:100D97000DDD1700000DE27F0022120036803F12A2
:100DA7002368803A121F11803512249C8030122646
:100DB7006F802B1222B58026121F9B8021122022C2
:100DC700801C121F56801712262880121221F180CC
:100DD7000D1213CC8008121C6580037F14229030FB
:040DE7000CE0FF22FB
:101ECB0090305FA3E0FFAC071FEC6037741E2FF55B
:101EDB0082E43430F583E0FD74612FF582E4343015
:101EEB00F583E0FE90300AE030E11174A42FF58207
:101EFB00E43430F583E0FC5205EC5206ED6E60C61F
:061F0B007F00227F01228D
:101CBB007E307F1C903017E0FD8E088F098D0A85D2
:101CCB000982850883E4F0A3E50AF0E4F50BE50A45
:101CDB0060339030E7E0FBA3E0FAA3E0F9851682CE
:101CEB007583001202B7FFAE0B050B8509828508C1
:101CFB0083A3A3E5822EF582E43583F583EFF0050C
:061D0B0016150A80C92232
:10218900E4903007F0903017E0FFEFFD903018E44D
:10219900F0A3EDF09030E7A3E0FAA3E0F9E516FD2E
:1021A9007C00E92DF9EC3AAD0190301AF0A3EDF07D
:0621B900EF2516F51622C9
:102063007F011209E0903003E0FCA3E0FDA3E0FE52
:10207300A3E0FF8F0F8E0E8D0D8C0CE47B04FAF919
:10208300F81203CC8F0F8E0E8D0D8C0CC286D28668
:0E209300780C74FF120473EC4D4E4F70EF2268
:10247A00E516C3951550189030E7E0FBA3E0FAA3E0
:10248A00E0F98516827583001202B7FF0516227FCE
:02249A0000221E
:03004300021400A4
:0300530002140094
:101400000223BC0002245500022430000223E30022
:101410000222540002215100020012000200520078
:101420000213FF0002269B0002269C0002269D005C
:1014300002269E0002269F000226A0000226A1008E
:101440000226A200020052000226A3000226A400E7
:101450000226A5000226A6000226A7000226A80052
:101460000226A900020052000200520002005200AF
:101470000226AA000226AB000226AC000226AD001E
:101480000226AE000226AF000226B0000226B100FE
:101490000226B2000226B3000226B4000226B500DE
:1014A0000226B6000226B7000226B8000226B900BE
:0814B0000226BA000226BB006F
:100200001201000200000040131387800000010269
:1002100003010A06000200000040010009022E004E
:1002200001010080FA0904000004FF000000070536
:100230000202000200070504020002000705860210
:100240000002000705880200020009022E000101D9
:100250000080320904000004FF00000007050202CC
:100260004000000705040240000007058602400028
:10027000000705880240000004030904120354002B
:1002800068006F0072006C006100620073000E0372
:0E0290004300430053003100370035000000EA
:10174A000219B1E493A3F8E493A34003F68001F2EB
:10175A0008DFF48029E493A3F85407240CC8C333A0
:10176A00C4540F4420C8834004F456800146F6DF6F
:10177A00E4800B0102040810204080900FD0E47E20
:10178A00019360BCA3FF543F30E509541FFEE49364
:10179A00A360010ECF54C025E060A840B8E493A32B
:1017AA00FAE493A3F8E493A3C8C582C8CAC583CA56
:1017BA00F0A3C8C582C8CAC583CADFE9DEE780BE0E
:0110A6000049
:10029E00BB010689828A83E0225002E722BBFE025E
:1002AE00E32289828A83E49322BB010CE58229F53D
:1002BE0082E5833AF583E0225006E92582F8E622AC
:1002CE00BBFE06E92582F8E222E58229F582E58366
:1002DE003AF583E49322BB010689828A83F0225089
:1002EE0002F722BBFE01F322C5F0F8A3E028F0C509
:1002FE00F0F8E582158270021583E038F022A3F83B
:10030E00E0C5F025F0F0E582158270021583E0C895
:10031E0038F0E822BB010A89828A83F0E5F0A3F067
:10032E00225006F709A7F01922BBFE06F3E5F009E5
:10033E00F31922E88FF0A4CC8BF0A42CFCE98EF0FC
:10034E00A42CFC8AF0EDA42CFCEA8EF0A4CDA8F02F
:10035E008BF0A42DCC3825F0FDE98FF0A42CCD35F3
:10036E00F0FCEB8EF0A4FEA9F0EB8FF0A4CFC5F05D
:10037E002ECD39FEE43CFCEAA42DCE35F0FDE43C56
:10038E00FC2275F008758200EF2FFFEE33FECD33A1
:10039E00CDCC33CCC58233C5829BED9AEC99E582E8
:1003AE0098400CF582EE9BFEED9AFDEC99FC0FD574
:1003BE00F0D6E4CEFBE4CDFAE4CCF9A88222B80064
:1003CE00C1B90059BA002DEC8BF084CFCECDFCE52F
:1003DE00F0CBF97818EF2FFFEE33FEED33FDEC3353
:1003EE00FCEB33FB10D703994004EB99FB0FD8E5D8
:1003FE00E4F9FA227818EF2FFFEE33FEED33FDEC21
:10040E0033FCC933C910D7059BE99A4007EC9BFC16
:10041E00E99AF90FD8E0E4C9FAE4CCFB2275F010A2
:10042E00EF2FFFEE33FEED33FDCC33CCC833C810C7
:10043E00D7079BEC9AE899400AED9BFDEC9AFCE8F5
:10044E0099F80FD5F0DAE4CDFBE4CCFAE4C8F92242
:10045E00E8600FECC313FCED13FDEE13FEEF13FF7C
:10046E00D8F1227401FF3395E0FEFDFC080808E682
:10047E00CF2FF618E6CE3EF618E6CD3DF618E6CCB2
:10048E003CF622ECF0A3EDF0A3EEF0A3EFF022A8E1
:10049E00828583F0D083D0821204B41204B4120485
:1004AE00B41204B4E473E493A3C583C5F0C583C842
:1004BE00C582C8F0A3C583C5F0C583C8C582C8224E
:1004CE00D083D082F8E4937012740193700DA3A3BD
:1004DE0093F8740193F5828883E4737402936860D1
:1004EE00EFA3A3A380DFD083D082F8E493701274BD
:1004FE000193700DA3A393F8740193F5828883E49E
:10050E0073740293B5F0067403936860E9A3A3A312
:10051E00A380D8E709F608DFFA8046E709F208DF7C
:10052E00FA803E88828C83E709F0A3DFFA8032E3FB
:10053E0009F608DFFA806EE309F208DFFA806688B2
:10054E00828C83E309F0A3DFFA805A89828A83E0E2
:10055E00A3F608DFFA804E89828A83E0A3F208DFD1
:10056E00FA804280D280FA80C680D4805580F28094
:10057E0029801080A680EA809A80A880DA80E280A6
:10058E00CA802988848C8589828A83E493A3058610
:10059E00F0A30586DFF5DEF3800B89828A83E49370
:1005AE00A3F608DFF9ECFAA9F0EDFB2288848C851E
:1005BE0089828A83E0A30586F0A30586DFF6DEF442
:1005CE0080E389828A83E493A3F208DFF980D688D8
:1005DE00F0EF60010E4E60CD88F0ED2402B4040001
:1005EE0050C3F582EB2402B4040050B92323458294
:0505FE0023900571735C
:00000001FF
